{
  "contractName": "smartMarket",
  "abi": [
    {
      "constant": true,
      "inputs": [],
      "name": "productIndex",
      "outputs": [
        {
          "name": "",
          "type": "uint256"
        }
      ],
      "payable": false,
      "stateMutability": "view",
      "type": "function",
      "signature": "0xc897d5a6"
    },
    {
      "inputs": [],
      "payable": false,
      "stateMutability": "nonpayable",
      "type": "constructor",
      "signature": "constructor"
    },
    {
      "constant": false,
      "inputs": [
        {
          "name": "_name",
          "type": "string"
        },
        {
          "name": "_category",
          "type": "string"
        },
        {
          "name": "_imageLink",
          "type": "string"
        },
        {
          "name": "_descLink",
          "type": "string"
        },
        {
          "name": "_auctionStartTime",
          "type": "uint256"
        },
        {
          "name": "_auctionEndTime",
          "type": "uint256"
        },
        {
          "name": "_startPrice",
          "type": "uint256"
        },
        {
          "name": "_productCondition",
          "type": "uint256"
        }
      ],
      "name": "addProductToStore",
      "outputs": [],
      "payable": false,
      "stateMutability": "nonpayable",
      "type": "function",
      "signature": "0xa508b955"
    },
    {
      "constant": true,
      "inputs": [
        {
          "name": "_productId",
          "type": "uint256"
        }
      ],
      "name": "getProduct",
      "outputs": [
        {
          "name": "idRet",
          "type": "uint256"
        },
        {
          "name": "nameRet",
          "type": "string"
        },
        {
          "name": "categoryRet",
          "type": "string"
        },
        {
          "name": "imgRet",
          "type": "string"
        },
        {
          "name": "descRet",
          "type": "string"
        },
        {
          "name": "startTimeRet",
          "type": "uint256"
        },
        {
          "name": "endTimeRet",
          "type": "uint256"
        },
        {
          "name": "startPriceRet",
          "type": "uint256"
        },
        {
          "name": "ProductAvailabilityRet",
          "type": "uint8"
        },
        {
          "name": "ProductConditionRet",
          "type": "uint8"
        }
      ],
      "payable": false,
      "stateMutability": "view",
      "type": "function",
      "signature": "0xb9db15b4"
    }
  ],
  "bytecode": "0x608060405234801561001057600080fd5b5060008081905550610e8d806100276000396000f3fe608060405260043610610057576000357c0100000000000000000000000000000000000000000000000000000000900463ffffffff168063a508b9551461005c578063b9db15b414610312578063c897d5a614610550575b600080fd5b34801561006857600080fd5b50610310600480360361010081101561008057600080fd5b810190808035906020019064010000000081111561009d57600080fd5b8201836020820111156100af57600080fd5b803590602001918460018302840111640100000000831117156100d157600080fd5b91908080601f016020809104026020016040519081016040528093929190818152602001838380828437600081840152601f19601f8201169050808301925050505050505091929192908035906020019064010000000081111561013457600080fd5b82018360208201111561014657600080fd5b8035906020019184600183028401116401000000008311171561016857600080fd5b91908080601f016020809104026020016040519081016040528093929190818152602001838380828437600081840152601f19601f820116905080830192505050505050509192919290803590602001906401000000008111156101cb57600080fd5b8201836020820111156101dd57600080fd5b803590602001918460018302840111640100000000831117156101ff57600080fd5b91908080601f016020809104026020016040519081016040528093929190818152602001838380828437600081840152601f19601f8201169050808301925050505050505091929192908035906020019064010000000081111561026257600080fd5b82018360208201111561027457600080fd5b8035906020019184600183028401116401000000008311171561029657600080fd5b91908080601f016020809104026020016040519081016040528093929190818152602001838380828437600081840152601f19601f8201169050808301925050505050505091929192908035906020019092919080359060200190929190803590602001909291908035906020019092919050505061057b565b005b34801561031e57600080fd5b5061034b6004803603602081101561033557600080fd5b810190808035906020019092919050505061087e565b604051808b8152602001806020018060200180602001806020018a815260200189815260200188815260200187600281111561038357fe5b60ff16815260200186600181111561039757fe5b60ff16815260200185810385528e818151815260200191508051906020019080838360005b838110156103d75780820151818401526020810190506103bc565b50505050905090810190601f1680156104045780820380516001836020036101000a031916815260200191505b5085810384528d818151815260200191508051906020019080838360005b8381101561043d578082015181840152602081019050610422565b50505050905090810190601f16801561046a5780820380516001836020036101000a031916815260200191505b5085810383528c818151815260200191508051906020019080838360005b838110156104a3578082015181840152602081019050610488565b50505050905090810190601f1680156104d05780820380516001836020036101000a031916815260200191505b5085810382528b818151815260200191508051906020019080838360005b838110156105095780820151818401526020810190506104ee565b50505050905090810190601f1680156105365780820380516001836020036101000a031916815260200191505b509e50505050505050505050505050505060405180910390f35b34801561055c57600080fd5b50610565610d1a565b6040518082815260200191505060405180910390f35b828410151561058957600080fd5b600160008082825401925050819055506105a1610d20565b6101c06040519081016040528060005481526020018a81526020018981526020018881526020018781526020018681526020018581526020018481526020016001600080815260200190815260200160002060009054906101000a900473ffffffffffffffffffffffffffffffffffffffff1673ffffffffffffffffffffffffffffffffffffffff1681526020016000815260200160008152602001600081526020016000600281111561065157fe5b815260200183600181111561066257fe5b600181111561066d57fe5b815250905033600160008054815260200190815260200160002060006101000a81548173ffffffffffffffffffffffffffffffffffffffff021916908373ffffffffffffffffffffffffffffffffffffffff16021790555080600260003373ffffffffffffffffffffffffffffffffffffffff1673ffffffffffffffffffffffffffffffffffffffff16815260200190815260200160002060008054815260200190815260200160002060008201518160000155602082015181600101908051906020019061073d929190610dbc565b50604082015181600201908051906020019061075a929190610dbc565b506060820151816003019080519060200190610777929190610dbc565b506080820151816004019080519060200190610794929190610dbc565b5060a0820151816005015560c0820151816006015560e082015181600701556101008201518160080160006101000a81548173ffffffffffffffffffffffffffffffffffffffff021916908373ffffffffffffffffffffffffffffffffffffffff160217905550610120820151816009015561014082015181600a015561016082015181600b015561018082015181600c0160006101000a81548160ff0219169083600281111561084157fe5b02179055506101a082015181600c0160016101000a81548160ff0219169083600181111561086b57fe5b0217905550905050505050505050505050565b60006060806060806000806000806000610896610d20565b60026000600160008f815260200190815260200160002060009054906101000a900473ffffffffffffffffffffffffffffffffffffffff1673ffffffffffffffffffffffffffffffffffffffff1673ffffffffffffffffffffffffffffffffffffffff16815260200190815260200160002060008d81526020019081526020016000206101c0604051908101604052908160008201548152602001600182018054600181600116156101000203166002900480601f0160208091040260200160405190810160405280929190818152602001828054600181600116156101000203166002900480156109c95780601f1061099e576101008083540402835291602001916109c9565b820191906000526020600020905b8154815290600101906020018083116109ac57829003601f168201915b50505050508152602001600282018054600181600116156101000203166002900480601f016020809104026020016040519081016040528092919081815260200182805460018160011615610100020316600290048015610a6b5780601f10610a4057610100808354040283529160200191610a6b565b820191906000526020600020905b815481529060010190602001808311610a4e57829003601f168201915b50505050508152602001600382018054600181600116156101000203166002900480601f016020809104026020016040519081016040528092919081815260200182805460018160011615610100020316600290048015610b0d5780601f10610ae257610100808354040283529160200191610b0d565b820191906000526020600020905b815481529060010190602001808311610af057829003601f168201915b50505050508152602001600482018054600181600116156101000203166002900480601f016020809104026020016040519081016040528092919081815260200182805460018160011615610100020316600290048015610baf5780601f10610b8457610100808354040283529160200191610baf565b820191906000526020600020905b815481529060010190602001808311610b9257829003601f168201915b505050505081526020016005820154815260200160068201548152602001600782015481526020016008820160009054906101000a900473ffffffffffffffffffffffffffffffffffffffff1673ffffffffffffffffffffffffffffffffffffffff1673ffffffffffffffffffffffffffffffffffffffff16815260200160098201548152602001600a8201548152602001600b8201548152602001600c820160009054906101000a900460ff166002811115610c6857fe5b6002811115610c7357fe5b8152602001600c820160019054906101000a900460ff166001811115610c9557fe5b6001811115610ca057fe5b81525050905080600001519a50806020015199508060400151985080606001519750806080015196508060a0015195508060c0015194508060e0015193508061018001519250806101a0015191508a8a8a8a8a8a8a8a8a8a9a509a509a509a509a509a509a509a509a509a50509193959799509193959799565b60005481565b6101c0604051908101604052806000815260200160608152602001606081526020016060815260200160608152602001600081526020016000815260200160008152602001600073ffffffffffffffffffffffffffffffffffffffff16815260200160008152602001600081526020016000815260200160006002811115610da457fe5b815260200160006001811115610db657fe5b81525090565b828054600181600116156101000203166002900490600052602060002090601f016020900481019282601f10610dfd57805160ff1916838001178555610e2b565b82800160010185558215610e2b579182015b82811115610e2a578251825591602001919060010190610e0f565b5b509050610e389190610e3c565b5090565b610e5e91905b80821115610e5a576000816000905550600101610e42565b5090565b9056fea165627a7a72305820a2453c4d32e35661a7fc8597f2c7052e402dd0ef645204b0f13d5c41b3d781f20029",
  "source": "pragma solidity ^0.5.0;\n\ncontract smartMarket {\n\n  enum ProductAvailability { Open, Sold, Unsold }\n  enum ProductCondition {New, Used}\n  uint public productIndex;\n  mapping(uint => address) productIdInStore;\n  mapping (address => mapping(uint => Product)) stores;\n\n  struct Product{\n  uint id;\n  string name;\n  string category;\n  string imageLink;\n  string descLink;\n  uint auctionStartTime;\n  uint auctionEndTime;\n  uint startPrice;\n  address highestBidder;\n  uint highestBid;\n  uint secondHighestBid;\n  uint totalBids;\n  ProductAvailability availability;\n  ProductCondition condition;\n  }\n\n  constructor() public {\n    productIndex = 0;\n  }\n\n  function addProductToStore(string memory _name, string memory _category, string memory _imageLink, string memory _descLink, uint _auctionStartTime,\n  uint _auctionEndTime, uint _startPrice, uint _productCondition) public {\n\n  require (_auctionStartTime < _auctionEndTime);\n  productIndex += 1;\n  Product memory product = Product(productIndex, _name, _category, _imageLink, _descLink, _auctionStartTime, _auctionEndTime,\n                           _startPrice, productIdInStore[0], 0, 0, 0, ProductAvailability.Open, ProductCondition(_productCondition));\n                           productIdInStore[productIndex] = msg.sender;\n  stores[msg.sender][productIndex] = product;\n\n}\nfunction getProduct(uint _productId) view public returns (uint idRet, string memory nameRet, string memory categoryRet, string memory imgRet, string memory descRet, uint startTimeRet, uint endTimeRet, uint startPriceRet, ProductAvailability ProductAvailabilityRet, ProductCondition ProductConditionRet) {\n\n  Product memory product = stores[productIdInStore[_productId]][_productId];\n\n  idRet = product.id;\n  nameRet = product.name;\n  categoryRet = product.category;\n  imgRet = product.imageLink;\n  descRet = product.descLink;\n  startTimeRet = product.auctionStartTime;\n  endTimeRet = product.auctionEndTime;\n  startPriceRet = product.startPrice;\n  ProductAvailabilityRet = product.availability;\n  ProductConditionRet = product.condition;\n  return (idRet, nameRet, categoryRet, imgRet, descRet, startTimeRet,endTimeRet, startPriceRet, ProductAvailabilityRet, ProductConditionRet);\n\n}\n}\n",
  "sourcePath": "/home/ubuntu/dapp/ecommerce/ethereum/contracts/smartMarket.sol",
  "compiler": {
    "name": "solc",
    "version": "0.5.0+commit.1d4f565a.Emscripten.clang"
  },
  "schemaVersion": "3.0.0",
  "updatedAt": "2019-03-05T11:05:28.476Z",
  "devdoc": {
    "methods": {}
  },
  "userdoc": {
    "methods": {}
  }
}