{
  "contractName": "smartMarket",
  "abi": [
    {
      "constant": true,
      "inputs": [],
      "name": "productIndex",
      "outputs": [
        {
          "name": "",
          "type": "uint256"
        }
      ],
      "payable": false,
      "stateMutability": "view",
      "type": "function"
    },
    {
      "constant": true,
      "inputs": [],
      "name": "arbiter",
      "outputs": [
        {
          "name": "",
          "type": "address"
        }
      ],
      "payable": false,
      "stateMutability": "view",
      "type": "function"
    },
    {
      "inputs": [],
      "payable": false,
      "stateMutability": "nonpayable",
      "type": "constructor"
    },
    {
      "constant": false,
      "inputs": [
        {
          "name": "_name",
          "type": "string"
        },
        {
          "name": "_category",
          "type": "string"
        },
        {
          "name": "_imageLink",
          "type": "string"
        },
        {
          "name": "_descLink",
          "type": "string"
        },
        {
          "name": "_startTime",
          "type": "uint256"
        },
        {
          "name": "_price",
          "type": "uint256"
        },
        {
          "name": "_productCondition",
          "type": "uint256"
        }
      ],
      "name": "addProductToStore",
      "outputs": [],
      "payable": false,
      "stateMutability": "nonpayable",
      "type": "function"
    },
    {
      "constant": true,
      "inputs": [
        {
          "name": "_productId",
          "type": "uint256"
        }
      ],
      "name": "getProduct",
      "outputs": [
        {
          "name": "",
          "type": "uint256"
        },
        {
          "name": "",
          "type": "string"
        },
        {
          "name": "",
          "type": "string"
        },
        {
          "name": "",
          "type": "string"
        },
        {
          "name": "",
          "type": "string"
        },
        {
          "name": "",
          "type": "uint256"
        },
        {
          "name": "",
          "type": "uint256"
        },
        {
          "name": "",
          "type": "uint8"
        },
        {
          "name": "",
          "type": "address"
        }
      ],
      "payable": false,
      "stateMutability": "view",
      "type": "function"
    }
  ],
  "bytecode": "0x608060405234801561001057600080fd5b5060008081905550610dbe806100276000396000f3fe608060405260043610610062576000357c0100000000000000000000000000000000000000000000000000000000900463ffffffff168063170dd16014610067578063b9db15b414610312578063c897d5a614610567578063fe25e00a14610592575b600080fd5b34801561007357600080fd5b50610310600480360360e081101561008a57600080fd5b81019080803590602001906401000000008111156100a757600080fd5b8201836020820111156100b957600080fd5b803590602001918460018302840111640100000000831117156100db57600080fd5b91908080601f016020809104026020016040519081016040528093929190818152602001838380828437600081840152601f19601f8201169050808301925050505050505091929192908035906020019064010000000081111561013e57600080fd5b82018360208201111561015057600080fd5b8035906020019184600183028401116401000000008311171561017257600080fd5b91908080601f016020809104026020016040519081016040528093929190818152602001838380828437600081840152601f19601f820116905080830192505050505050509192919290803590602001906401000000008111156101d557600080fd5b8201836020820111156101e757600080fd5b8035906020019184600183028401116401000000008311171561020957600080fd5b91908080601f016020809104026020016040519081016040528093929190818152602001838380828437600081840152601f19601f8201169050808301925050505050505091929192908035906020019064010000000081111561026c57600080fd5b82018360208201111561027e57600080fd5b803590602001918460018302840111640100000000831117156102a057600080fd5b91908080601f016020809104026020016040519081016040528093929190818152602001838380828437600081840152601f19601f8201169050808301925050505050505091929192908035906020019092919080359060200190929190803590602001909291905050506105e9565b005b34801561031e57600080fd5b5061034b6004803603602081101561033557600080fd5b8101908080359060200190929190505050610828565b604051808a81526020018060200180602001806020018060200189815260200188815260200187600181111561037d57fe5b60ff1681526020018673ffffffffffffffffffffffffffffffffffffffff1673ffffffffffffffffffffffffffffffffffffffff16815260200185810385528d818151815260200191508051906020019080838360005b838110156103ef5780820151818401526020810190506103d4565b50505050905090810190601f16801561041c5780820380516001836020036101000a031916815260200191505b5085810384528c818151815260200191508051906020019080838360005b8381101561045557808201518184015260208101905061043a565b50505050905090810190601f1680156104825780820380516001836020036101000a031916815260200191505b5085810383528b818151815260200191508051906020019080838360005b838110156104bb5780820151818401526020810190506104a0565b50505050905090810190601f1680156104e85780820380516001836020036101000a031916815260200191505b5085810382528a818151815260200191508051906020019080838360005b83811015610521578082015181840152602081019050610506565b50505050905090810190601f16801561054e5780820380516001836020036101000a031916815260200191505b509d505050505050505050505050505060405180910390f35b34801561057357600080fd5b5061057c610c53565b6040518082815260200191505060405180910390f35b34801561059e57600080fd5b506105a7610c59565b604051808273ffffffffffffffffffffffffffffffffffffffff1673ffffffffffffffffffffffffffffffffffffffff16815260200191505060405180910390f35b60016000808282540192505081905550610601610c7f565b61012060405190810160405280600054815260200189815260200188815260200187815260200186815260200185815260200184815260200183600181111561064657fe5b600181111561065157fe5b8152602001600073ffffffffffffffffffffffffffffffffffffffff16815250905080600260003373ffffffffffffffffffffffffffffffffffffffff1673ffffffffffffffffffffffffffffffffffffffff1681526020019081526020016000206000805481526020019081526020016000206000820151816000015560208201518160010190805190602001906106eb929190610ced565b506040820151816002019080519060200190610708929190610ced565b506060820151816003019080519060200190610725929190610ced565b506080820151816004019080519060200190610742929190610ced565b5060a0820151816005015560c0820151816006015560e08201518160070160006101000a81548160ff0219169083600181111561077b57fe5b02179055506101008201518160070160016101000a81548173ffffffffffffffffffffffffffffffffffffffff021916908373ffffffffffffffffffffffffffffffffffffffff16021790555090505033600360008054815260200190815260200160002060006101000a81548173ffffffffffffffffffffffffffffffffffffffff021916908373ffffffffffffffffffffffffffffffffffffffff1602179055505050505050505050565b600060608060608060008060008061083e610c7f565b60026000600360008e815260200190815260200160002060009054906101000a900473ffffffffffffffffffffffffffffffffffffffff1673ffffffffffffffffffffffffffffffffffffffff1673ffffffffffffffffffffffffffffffffffffffff16815260200190815260200160002060008c8152602001908152602001600020610120604051908101604052908160008201548152602001600182018054600181600116156101000203166002900480601f0160208091040260200160405190810160405280929190818152602001828054600181600116156101000203166002900480156109715780601f1061094657610100808354040283529160200191610971565b820191906000526020600020905b81548152906001019060200180831161095457829003601f168201915b50505050508152602001600282018054600181600116156101000203166002900480601f016020809104026020016040519081016040528092919081815260200182805460018160011615610100020316600290048015610a135780601f106109e857610100808354040283529160200191610a13565b820191906000526020600020905b8154815290600101906020018083116109f657829003601f168201915b50505050508152602001600382018054600181600116156101000203166002900480601f016020809104026020016040519081016040528092919081815260200182805460018160011615610100020316600290048015610ab55780601f10610a8a57610100808354040283529160200191610ab5565b820191906000526020600020905b815481529060010190602001808311610a9857829003601f168201915b50505050508152602001600482018054600181600116156101000203166002900480601f016020809104026020016040519081016040528092919081815260200182805460018160011615610100020316600290048015610b575780601f10610b2c57610100808354040283529160200191610b57565b820191906000526020600020905b815481529060010190602001808311610b3a57829003601f168201915b5050505050815260200160058201548152602001600682015481526020016007820160009054906101000a900460ff166001811115610b9257fe5b6001811115610b9d57fe5b81526020016007820160019054906101000a900473ffffffffffffffffffffffffffffffffffffffff1673ffffffffffffffffffffffffffffffffffffffff1673ffffffffffffffffffffffffffffffffffffffff16815250509050806000015181602001518260400151836060015184608001518560a001518660c001518760e00151886101000151879750869650859550849450995099509950995099509950995099509950509193959799909294969850565b60005481565b600160009054906101000a900473ffffffffffffffffffffffffffffffffffffffff1681565b610120604051908101604052806000815260200160608152602001606081526020016060815260200160608152602001600081526020016000815260200160006001811115610cca57fe5b8152602001600073ffffffffffffffffffffffffffffffffffffffff1681525090565b828054600181600116156101000203166002900490600052602060002090601f016020900481019282601f10610d2e57805160ff1916838001178555610d5c565b82800160010185558215610d5c579182015b82811115610d5b578251825591602001919060010190610d40565b5b509050610d699190610d6d565b5090565b610d8f91905b80821115610d8b576000816000905550600101610d73565b5090565b9056fea165627a7a723058203fe34f50c0c49a74422749a0b0b64d3018e77a41d4e3c63dfe1d303023ee51bf0029",
  "source": "pragma solidity ^0.5.0;\r\n\r\ncontract smartMarket {\r\n  enum ProductCondition {New, Used}\r\n    uint public productIndex;\r\n    address public arbiter;\r\n    mapping (address => mapping(uint => Product)) stores;\r\n    mapping (uint => address payable) productIdInStore;\r\n    mapping (uint => address ) productEscrow;\r\n\r\n    struct Product {\r\n      uint id;\r\n      string name;\r\n      string category;\r\n      string imageLink;\r\n      string descLink;\r\n      uint startTime;\r\n      uint price;\r\n      ProductCondition condition;\r\n      address buyer;\r\n    }\r\n\r\n    constructor() public {\r\n\r\n      productIndex = 0;\r\n\r\n    }\r\n\r\n    function addProductToStore(string memory _name, string memory _category, string memory _imageLink,\r\n    string memory _descLink, uint _startTime, uint _price, uint _productCondition) public {\r\n    productIndex += 1;\r\n    Product memory product = Product(productIndex, _name, _category, _imageLink,\r\n      _descLink, _startTime, _price, ProductCondition(_productCondition), address(0)); //change the left one 0 ->msg.sender\r\n\r\n    stores[msg.sender][productIndex] = product;\r\n    productIdInStore[productIndex] = msg.sender;\r\n\r\n  }\r\n\r\n  function getProduct(uint _productId) public view returns (uint, string memory, string memory, string memory,\r\n    string memory, uint, uint, ProductCondition, address) {\r\n\r\n    Product memory product = stores[productIdInStore[_productId]][_productId];\r\n    return (product.id, product.name, product.category, product.imageLink,\r\n      product.descLink, product.startTime, product.price,\r\n      product.condition, product.buyer);\r\n  }\r\n\r\n}\r\n",
  "sourcePath": "C:/hackathon/ethereum_smartMarket/ethereum/contracts/smartMarket.sol",
  "compiler": {
    "name": "solc",
    "version": "0.5.0+commit.1d4f565a.Emscripten.clang"
  },
  "schemaVersion": "3.0.1",
  "updatedAt": "2019-03-29T09:36:35.693Z",
  "devdoc": {
    "methods": {}
  },
  "userdoc": {
    "methods": {}
  }
}