{
  "contractName": "smartMarket",
  "abi": [
    {
      "constant": true,
      "inputs": [],
      "name": "productIndex",
      "outputs": [
        {
          "name": "",
          "type": "uint256"
        }
      ],
      "payable": false,
      "stateMutability": "view",
      "type": "function",
      "signature": "0xc897d5a6"
    },
    {
      "inputs": [],
      "payable": false,
      "stateMutability": "nonpayable",
      "type": "constructor",
      "signature": "constructor"
    },
    {
      "constant": false,
      "inputs": [
        {
          "name": "_name",
          "type": "string"
        },
        {
          "name": "_category",
          "type": "string"
        },
        {
          "name": "_imageLink",
          "type": "string"
        },
        {
          "name": "_descLink",
          "type": "string"
        },
        {
          "name": "_auctionStartTime",
          "type": "uint256"
        },
        {
          "name": "_auctionEndTime",
          "type": "uint256"
        },
        {
          "name": "_startPrice",
          "type": "uint256"
        },
        {
          "name": "_productCondition",
          "type": "uint256"
        }
      ],
      "name": "addProductToStore",
      "outputs": [],
      "payable": false,
      "stateMutability": "nonpayable",
      "type": "function",
      "signature": "0xa508b955"
    },
    {
      "constant": true,
      "inputs": [
        {
          "name": "_productId",
          "type": "uint256"
        }
      ],
      "name": "getProduct",
      "outputs": [
        {
          "name": "idRet",
          "type": "uint256"
        },
        {
          "name": "nameRet",
          "type": "string"
        },
        {
          "name": "categoryRet",
          "type": "string"
        },
        {
          "name": "imgRet",
          "type": "string"
        },
        {
          "name": "descRet",
          "type": "string"
        },
        {
          "name": "startTimeRet",
          "type": "uint256"
        },
        {
          "name": "endTimeRet",
          "type": "uint256"
        },
        {
          "name": "startPriceRet",
          "type": "uint256"
        },
        {
          "name": "ProductAvailabilityRet",
          "type": "uint8"
        },
        {
          "name": "ProductConditionRet",
          "type": "uint8"
        }
      ],
      "payable": false,
      "stateMutability": "view",
      "type": "function",
      "signature": "0xb9db15b4"
    },
    {
      "constant": false,
      "inputs": [
        {
          "name": "_productId",
          "type": "uint256"
        },
        {
          "name": "_bid",
          "type": "bytes32"
        }
      ],
      "name": "bid",
      "outputs": [
        {
          "name": "",
          "type": "bool"
        }
      ],
      "payable": true,
      "stateMutability": "payable",
      "type": "function",
      "signature": "0xea1591bb"
    },
    {
      "constant": true,
      "inputs": [
        {
          "name": "_productId",
          "type": "uint256"
        }
      ],
      "name": "totalBids",
      "outputs": [
        {
          "name": "_totalBidsRet",
          "type": "uint256"
        }
      ],
      "payable": false,
      "stateMutability": "view",
      "type": "function",
      "signature": "0x28e3d190"
    }
  ],
  "bytecode": "0x608060405234801561001057600080fd5b50600080819055506115ba806100276000396000f3fe60806040526004361061006d576000357c0100000000000000000000000000000000000000000000000000000000900463ffffffff16806328e3d19014610072578063a508b955146100c1578063b9db15b414610377578063c897d5a6146105b5578063ea1591bb146105e0575b600080fd5b34801561007e57600080fd5b506100ab6004803603602081101561009557600080fd5b8101908080359060200190929190505050610630565b6040518082815260200191505060405180910390f35b3480156100cd57600080fd5b5061037560048036036101008110156100e557600080fd5b810190808035906020019064010000000081111561010257600080fd5b82018360208201111561011457600080fd5b8035906020019184600183028401116401000000008311171561013657600080fd5b91908080601f016020809104026020016040519081016040528093929190818152602001838380828437600081840152601f19601f8201169050808301925050505050505091929192908035906020019064010000000081111561019957600080fd5b8201836020820111156101ab57600080fd5b803590602001918460018302840111640100000000831117156101cd57600080fd5b91908080601f016020809104026020016040519081016040528093929190818152602001838380828437600081840152601f19601f8201169050808301925050505050505091929192908035906020019064010000000081111561023057600080fd5b82018360208201111561024257600080fd5b8035906020019184600183028401116401000000008311171561026457600080fd5b91908080601f016020809104026020016040519081016040528093929190818152602001838380828437600081840152601f19601f820116905080830192505050505050509192919290803590602001906401000000008111156102c757600080fd5b8201836020820111156102d957600080fd5b803590602001918460018302840111640100000000831117156102fb57600080fd5b91908080601f016020809104026020016040519081016040528093929190818152602001838380828437600081840152601f19601f82011690508083019250505050505050919291929080359060200190929190803590602001909291908035906020019092919080359060200190929190505050610a5b565b005b34801561038357600080fd5b506103b06004803603602081101561039a57600080fd5b8101908080359060200190929190505050610d5e565b604051808b8152602001806020018060200180602001806020018a81526020018981526020018881526020018760028111156103e857fe5b60ff1681526020018660018111156103fc57fe5b60ff16815260200185810385528e818151815260200191508051906020019080838360005b8381101561043c578082015181840152602081019050610421565b50505050905090810190601f1680156104695780820380516001836020036101000a031916815260200191505b5085810384528d818151815260200191508051906020019080838360005b838110156104a2578082015181840152602081019050610487565b50505050905090810190601f1680156104cf5780820380516001836020036101000a031916815260200191505b5085810383528c818151815260200191508051906020019080838360005b838110156105085780820151818401526020810190506104ed565b50505050905090810190601f1680156105355780820380516001836020036101000a031916815260200191505b5085810382528b818151815260200191508051906020019080838360005b8381101561056e578082015181840152602081019050610553565b50505050905090810190601f16801561059b5780820380516001836020036101000a031916815260200191505b509e50505050505050505050505050505060405180910390f35b3480156105c157600080fd5b506105ca6111fa565b6040518082815260200191505060405180910390f35b610616600480360360408110156105f657600080fd5b810190808035906020019092919080359060200190929190505050611200565b604051808215151515815260200191505060405180910390f35b600061063a61144d565b600260006001600086815260200190815260200160002060009054906101000a900473ffffffffffffffffffffffffffffffffffffffff1673ffffffffffffffffffffffffffffffffffffffff1673ffffffffffffffffffffffffffffffffffffffff16815260200190815260200160002060008481526020019081526020016000206101c0604051908101604052908160008201548152602001600182018054600181600116156101000203166002900480601f01602080910402602001604051908101604052809291908181526020018280546001816001161561010002031660029004801561076d5780601f106107425761010080835404028352916020019161076d565b820191906000526020600020905b81548152906001019060200180831161075057829003601f168201915b50505050508152602001600282018054600181600116156101000203166002900480601f01602080910402602001604051908101604052809291908181526020018280546001816001161561010002031660029004801561080f5780601f106107e45761010080835404028352916020019161080f565b820191906000526020600020905b8154815290600101906020018083116107f257829003601f168201915b50505050508152602001600382018054600181600116156101000203166002900480601f0160208091040260200160405190810160405280929190818152602001828054600181600116156101000203166002900480156108b15780601f10610886576101008083540402835291602001916108b1565b820191906000526020600020905b81548152906001019060200180831161089457829003601f168201915b50505050508152602001600482018054600181600116156101000203166002900480601f0160208091040260200160405190810160405280929190818152602001828054600181600116156101000203166002900480156109535780601f1061092857610100808354040283529160200191610953565b820191906000526020600020905b81548152906001019060200180831161093657829003601f168201915b505050505081526020016005820154815260200160068201548152602001600782015481526020016008820160009054906101000a900473ffffffffffffffffffffffffffffffffffffffff1673ffffffffffffffffffffffffffffffffffffffff1673ffffffffffffffffffffffffffffffffffffffff16815260200160098201548152602001600a8201548152602001600b8201548152602001600c820160009054906101000a900460ff166002811115610a0c57fe5b6002811115610a1757fe5b8152602001600c820160019054906101000a900460ff166001811115610a3957fe5b6001811115610a4457fe5b815250509050806101600151915081915050919050565b8284101515610a6957600080fd5b60016000808282540192505081905550610a8161144d565b6101c06040519081016040528060005481526020018a81526020018981526020018881526020018781526020018681526020018581526020018481526020016001600080815260200190815260200160002060009054906101000a900473ffffffffffffffffffffffffffffffffffffffff1673ffffffffffffffffffffffffffffffffffffffff16815260200160008152602001600081526020016000815260200160006002811115610b3157fe5b8152602001836001811115610b4257fe5b6001811115610b4d57fe5b815250905033600160008054815260200190815260200160002060006101000a81548173ffffffffffffffffffffffffffffffffffffffff021916908373ffffffffffffffffffffffffffffffffffffffff16021790555080600260003373ffffffffffffffffffffffffffffffffffffffff1673ffffffffffffffffffffffffffffffffffffffff168152602001908152602001600020600080548152602001908152602001600020600082015181600001556020820151816001019080519060200190610c1d9291906114e9565b506040820151816002019080519060200190610c3a9291906114e9565b506060820151816003019080519060200190610c579291906114e9565b506080820151816004019080519060200190610c749291906114e9565b5060a0820151816005015560c0820151816006015560e082015181600701556101008201518160080160006101000a81548173ffffffffffffffffffffffffffffffffffffffff021916908373ffffffffffffffffffffffffffffffffffffffff160217905550610120820151816009015561014082015181600a015561016082015181600b015561018082015181600c0160006101000a81548160ff02191690836002811115610d2157fe5b02179055506101a082015181600c0160016101000a81548160ff02191690836001811115610d4b57fe5b0217905550905050505050505050505050565b60006060806060806000806000806000610d7661144d565b60026000600160008f815260200190815260200160002060009054906101000a900473ffffffffffffffffffffffffffffffffffffffff1673ffffffffffffffffffffffffffffffffffffffff1673ffffffffffffffffffffffffffffffffffffffff16815260200190815260200160002060008d81526020019081526020016000206101c0604051908101604052908160008201548152602001600182018054600181600116156101000203166002900480601f016020809104026020016040519081016040528092919081815260200182805460018160011615610100020316600290048015610ea95780601f10610e7e57610100808354040283529160200191610ea9565b820191906000526020600020905b815481529060010190602001808311610e8c57829003601f168201915b50505050508152602001600282018054600181600116156101000203166002900480601f016020809104026020016040519081016040528092919081815260200182805460018160011615610100020316600290048015610f4b5780601f10610f2057610100808354040283529160200191610f4b565b820191906000526020600020905b815481529060010190602001808311610f2e57829003601f168201915b50505050508152602001600382018054600181600116156101000203166002900480601f016020809104026020016040519081016040528092919081815260200182805460018160011615610100020316600290048015610fed5780601f10610fc257610100808354040283529160200191610fed565b820191906000526020600020905b815481529060010190602001808311610fd057829003601f168201915b50505050508152602001600482018054600181600116156101000203166002900480601f01602080910402602001604051908101604052809291908181526020018280546001816001161561010002031660029004801561108f5780601f106110645761010080835404028352916020019161108f565b820191906000526020600020905b81548152906001019060200180831161107257829003601f168201915b505050505081526020016005820154815260200160068201548152602001600782015481526020016008820160009054906101000a900473ffffffffffffffffffffffffffffffffffffffff1673ffffffffffffffffffffffffffffffffffffffff1673ffffffffffffffffffffffffffffffffffffffff16815260200160098201548152602001600a8201548152602001600b8201548152602001600c820160009054906101000a900460ff16600281111561114857fe5b600281111561115357fe5b8152602001600c820160019054906101000a900460ff16600181111561117557fe5b600181111561118057fe5b81525050905080600001519a50806020015199508060400151985080606001519750806080015196508060a0015195508060c0015194508060e0015193508061018001519250806101a0015191508a8a8a8a8a8a8a8a8a8a9a509a509a509a509a509a509a509a509a509a50509193959799509193959799565b60005481565b600080600260006001600087815260200190815260200160002060009054906101000a900473ffffffffffffffffffffffffffffffffffffffff1673ffffffffffffffffffffffffffffffffffffffff1673ffffffffffffffffffffffffffffffffffffffff168152602001908152602001600020600085815260200190815260200160002090508060050154421015151561129b57600080fd5b806006015442111515156112ae57600080fd5b8060070154341115156112c057600080fd5b600081600d0160003373ffffffffffffffffffffffffffffffffffffffff1673ffffffffffffffffffffffffffffffffffffffff16815260200190815260200160002060008581526020019081526020016000206001015414151561132457600080fd5b6080604051908101604052808581526020013481526020013373ffffffffffffffffffffffffffffffffffffffff1681526020016000151581525081600d0160003373ffffffffffffffffffffffffffffffffffffffff1673ffffffffffffffffffffffffffffffffffffffff1681526020019081526020016000206000858152602001908152602001600020600082015181600001556020820151816001015560408201518160020160006101000a81548173ffffffffffffffffffffffffffffffffffffffff021916908373ffffffffffffffffffffffffffffffffffffffff16021790555060608201518160020160146101000a81548160ff021916908315150217905550905050600181600b0160008282540192505081905550600191505092915050565b6101c0604051908101604052806000815260200160608152602001606081526020016060815260200160608152602001600081526020016000815260200160008152602001600073ffffffffffffffffffffffffffffffffffffffff168152602001600081526020016000815260200160008152602001600060028111156114d157fe5b8152602001600060018111156114e357fe5b81525090565b828054600181600116156101000203166002900490600052602060002090601f016020900481019282601f1061152a57805160ff1916838001178555611558565b82800160010185558215611558579182015b8281111561155757825182559160200191906001019061153c565b5b5090506115659190611569565b5090565b61158b91905b8082111561158757600081600090555060010161156f565b5090565b9056fea165627a7a72305820fad52690d91254f5c27eb409138864a71cdc9651316d014781cffcdf8477d7cf0029",
  "source": "pragma solidity ^0.5.0;\n\ncontract smartMarket {\n\n  enum ProductAvailability { Open, Sold, Unsold }\n  enum ProductCondition {New, Used}\n  uint public productIndex;\n  mapping(uint => address) productIdInStore;\n  mapping (address => mapping(uint => Product)) stores;\n\n  struct Product{\n  uint id;\n  string name;\n  string category;\n  string imageLink;\n  string descLink;\n  uint auctionStartTime;\n  uint auctionEndTime;\n  uint startPrice;\n  address highestBidder;\n  uint highestBid;\n  uint secondHighestBid;\n  uint totalBids;\n  ProductAvailability availability;\n  ProductCondition condition;\n  mapping (address => mapping (bytes32 => Bid)) bids;\n  }\n\n  struct Bid {\n  uint productId;\n  uint value;\n  address bidder;\n  bool revealed;\n\n}\n\n  constructor() public {\n    productIndex = 0;\n  }\n\n  function addProductToStore(string memory _name, string memory _category, string memory _imageLink, string memory _descLink, uint _auctionStartTime,\n  uint _auctionEndTime, uint _startPrice, uint _productCondition) public {\n\n  require (_auctionStartTime < _auctionEndTime);\n  productIndex += 1;\n  Product memory product = Product(productIndex, _name, _category, _imageLink, _descLink, _auctionStartTime, _auctionEndTime, _startPrice, productIdInStore[0], 0, 0, 0, ProductAvailability.Open, ProductCondition(_productCondition));\n  productIdInStore[productIndex] = msg.sender;\n  stores[msg.sender][productIndex] = product;\n\n}\nfunction getProduct(uint _productId) view public returns (uint idRet, string memory nameRet, string memory categoryRet, string memory imgRet, string memory descRet, uint startTimeRet, uint endTimeRet, uint startPriceRet, ProductAvailability ProductAvailabilityRet, ProductCondition ProductConditionRet) {\n\n  Product memory product = stores[productIdInStore[_productId]][_productId];\n\n  idRet = product.id;\n  nameRet = product.name;\n  categoryRet = product.category;\n  imgRet = product.imageLink;\n  descRet = product.descLink;\n  startTimeRet = product.auctionStartTime;\n  endTimeRet = product.auctionEndTime;\n  startPriceRet = product.startPrice;\n  ProductAvailabilityRet = product.availability;\n  ProductConditionRet = product.condition;\n  return (idRet, nameRet, categoryRet, imgRet, descRet, startTimeRet,endTimeRet, startPriceRet, ProductAvailabilityRet, ProductConditionRet);\n\n}\n\nfunction bid(uint _productId, bytes32 _bid) payable public returns (bool) {\n\n  Product storage product = stores[productIdInStore[_productId]][_productId];\n  require (now >= product.auctionStartTime);\n  require (now <= product.auctionEndTime);\n  require (msg.value > product.startPrice);\n  require (product.bids[msg.sender][_bid].value == 0);\n  product.bids[msg.sender][_bid] = Bid(_productId, msg.value, msg.sender, false);\n\n  product.totalBids += 1;\n\n  return true;\n\n}\n\nfunction totalBids(uint _productId) view public returns (uint _totalBidsRet) {\n\n  Product memory product = stores[productIdInStore[_productId]][_productId];\n\n  _totalBidsRet = product.totalBids;\n\n  return _totalBidsRet;\n\n}\n\n}\n",
  "sourcePath": "/home/ubuntu/dapp/ecommerce/ethereum/contracts/smartMarket.sol",
  "compiler": {
    "name": "solc",
    "version": "0.5.0+commit.1d4f565a.Emscripten.clang"
  },
  "schemaVersion": "3.0.0",
  "updatedAt": "2019-03-07T10:14:44.053Z",
  "devdoc": {
    "methods": {}
  },
  "userdoc": {
    "methods": {}
  }
}